:1000000005308A009D2D0000FF00030E8301A10032
:100010000A08A0008A010408A2007708A300780853
:10002000A4007908A5007A08A600831383120B1E8A
:100030001B288B1832288C308400001C21280C18B7
:100040003528220884002308F7002408F800250832
:10005000F9002608FA0020088A00210E8300FF0E0E
:100060007F0E09008A110A12E82B8A110A12402811
:100070000A108A100A11820728340C34013406341D
:100080000030F8001F08C73978049F000230F700DD
:10009000F70B48284B2800001F151F194D281E0874
:1000A000BA000530BF003A08C000F701F8013F0868
:1000B00003104018F707F70CF80CC018F707F70CF7
:1000C000F80C4019F707F70CF80CC019F707F70CF4
:1000D000F80C401AF707F70CF80CC01AF707F70CE2
:1000E000F80C401BF707F70CF80CC01BF707F70CD0
:1000F000F80CC1017808C0008E30F7004108F80004
:100100004008F900FA01F808031D90287908F80062
:10011000F9010830F702F808031D9028F701982824
:100120000310F81B9728F90DF80DF7039028F81322
:100130007A08C3007908C2007808C1007708C000B7
:10014000C701C6017F30C5008630C40040080319CE
:100150006B29CC00440803196B29CC02031CB52879
:100160007F30CC0703186B29BB288130CC02031CDD
:100170006B2903196B294C08F700F801F901FA0102
:10018000CB014108CA00CA174208C9004308C80089
:100190001930CC004708C8020318DE280130C90214
:1001A0000318DE28CA020318DE28CB020318DE2853
:1001B000CB0ACA0AC90A4708C80710294608C90253
:1001C0000318F9280130CA020318F928CB020318D2
:1001D000F928CB0ACA0A4608C9074708C807031CFA
:1001E0001029C90A031D1029CA0A031D1029CB0AA8
:1001F000102945088038CA0203180F290130CB02A4
:1002000003180F29CB0A45088038CA074608C907D2
:10021000031CED28CA0A031DED28CB0AED287A1429
:10022000CC0B13291E290310C80DC90DCA0DCB0D07
:100230000310FA0DF90DF80DCD0DCA284D1C262915
:100240000310F80CF90CFA0CCD0C2929F70303194B
:100250006B29CD1B52290310C80DC90DCA0DCB0D3A
:100260004708C80203183E290130C90203183E2975
:10027000CA0203183E29CB02031C61294608C902A1
:10028000031849290130CA0203184929CB02031C6B
:10029000612945088038CA02031852290130CB026F
:1002A000031C6129FA0A031D6129F90A031D61294A
:1002B000F80A031D6129F70A03196B29F80CF90CD8
:1002C000FA0C4108CC004508CC06CC1F6929F81768
:1002D0006F29F8136F29F701F801F901FA017A087B
:1002E000BE007908BD007808BC007708BB003E0856
:1002F000C2003D08C1003C08C0003B08BF00C60169
:10030000C501C4017E30C3004008C7004408C706C9
:10031000C71F8F2903110310C01B0314C2294008F3
:10032000C7004308C8003F08C80203199D29C71F1A
:10033000C2290308013A8300C2294408C8004008C2
:10034000C8020319A929C71FC2290308013A83005B
:10035000C2294508C8004108C8020319B529C71FAA
:10036000C2290308013A8300C2294608C80042088E
:10037000C8020319C129C71FC2290308013A830013
:10038000C2290310031CC9298316881083128814FC
:10039000CD2983168810831288108E018F018E015B
:1003A0000C108A110A12212841308400831300089E
:1003B0000319E8290130F800F701F70BDD29F80BE4
:1003C000DC294A30F700F70BE329E629800BDA290C
:1003D00008008316091089100911831289108316E9
:1003E00089100816881608178817831209158316AE
:1003F00009110000831209148316091000008312EA
:10040000C9018316081600308312081A0130C90486
:100410008316881600308312881A0130F700031003
:10042000F70D7708C9048316081700308312081BDC
:100430000130F700F70DF70DFC30F7057708C90418
:100440008316881700308312881B0130F700F70DE0
:10045000F70DF70DF830F7057708C9044908F800DB
:100460007808C800091083160910000083120914C7
:100470008316091000008312C90183160816003084
:100480008312081A0130C9048316881600308312BB
:10049000881A0130F7000310F70D7708C904831696
:1004A000081700308312081B0130F700F70DF70D15
:1004B000FC30F7057708C9048316881700308312CB
:1004C000881B0130F700F70DF70DF70DF830F70531
:1004D0007708C9044908F8007808C700091083168E
:1004E000091008128812081388138312480EF700A7
:1004F000F030F70577084704F8007808C700C71FF1
:10050000832A8316F129C508031D882A8910892AA0
:1005100089148316891000008312091183160911AA
:10052000000083120910831609108312460EC700BB
:100530000F30C7054708C8004818A02A0812A12A8A
:100540000816831608128312C818A82A8812A92A26
:1005500088168316881283124819B02A0813B12A04
:100560000817831608138312C819B82A8813B92AE2
:100570008817831688130000831209148316091044
:10058000C12A8312091083160910831246080F39F5
:10059000C7004708C8004818CF2A0812D02A0816F2
:1005A000831608128312C818D72A8812D82A8816E8
:1005B0008316881283124819DF2A0813E02A0817C5
:1005C000831608138312C819E72A8813E82A8817A4
:1005D0008316881300008312091483160910F02A69
:1005E000831209108316091083120800420BF92A9E
:1005F000FC2A4030C300FD2AC30101304102C30779
:1006000043088038C400C5014408C600E921080039
:100610004008073A0319162B0B3A03191B2B063A0D
:100620000319232B023A0319292B2E2B0130C10069
:10063000C200F622332BC5010130C600E921023089
:10064000C100D421332B0130C1000230C200F62298
:10065000332BC5011030C600E921332B0130C50012
:100660004008C600E92108000B08BA008B13831666
:1006700003178C170C140000000083120C087F393C
:1006800003197B2B0313BB0003170D080313BC00D6
:1006900003170F080313BD003B08C00008233C08E4
:1006A00003178D0003133D0803178F0083168C1763
:1006B0000C140000000083120C0D0E0D7F3903197D
:1006C0007B2B0313BB0003170D080313BC00031798
:1006D0000F080313BD003B08C00008233C080317A4
:1006E0008D0003133D0803178F008D0A03198F0A2D
:1006F0000313372B03170313BA1B8B1708000B08C0
:10070000BB008B13831603178C170C14000000001A
:100710000318B12B83120C087F390313BC00031795
:100720000D080313BD0003170F080313BE003C0898
:10073000C00008233D0803178D0003133E0803176C
:100740008F0083168C170C14000000008312031313
:10075000BA0BAB2BAE2B83160317B12BD02B831602
:10076000031783120C0D0E0D7F390313BC00031702
:100770000D080313BD0003170F080313BE003C0848
:10078000C00008233D0803178D0003133E0803171C
:100790008F008D0A03198F0A03100313BA0B822BE3
:1007A000BB1B8B1708004108F80140020318DB2B24
:1007B0004008F700E72BF7010830C200C00DF70D25
:1007C000410877020318F700F80DC20BDE2B080072
:1007D000290B9B2C83160811831208159630C10033
:1007E000D42183160811831208110130A802C10018
:1007F000C200F6229F3003178D0004308F000313D0
:1008000034230230C100C200F622A63003178D0047
:1008100004308F00031007300313BA007F23280829
:10082000BA001830BB0020303B1E3030BC003A0804
:10083000F700BA1F232CF709F70A7708BA002D3002
:10084000BC00BB173B143A08C0006430C100D3237E
:100850007708BA0030307807BD003A08C0000A3087
:10086000C100D32330307707BF0030307807BE0097
:100870003C08F70030303D020319422CBB14BB1B6F
:100880003B15562C3C08BD002030BC0030303E02E9
:1008900003194E2C3B14BB1BBB14562C031D3B14DD
:1008A000031D562C3D08BE002030BD003B195D2CB9
:1008B000BB18602C3B18632C662C3C08C000082336
:1008C0003D08C00008233E08C00008233F08C000C0
:1008D0000823AA3003178D0004308F00031406305C
:1008E0000313BA007F230230BA009630C100D4212E
:1008F000BA0B752CA808031D9B2C0430BA00FA30E3
:10090000C100D421BA0B7F2C0130C100C200F622F5
:10091000AE3003178D0004308F00031334230230F0
:10092000C100C200F622B53003178D0004308F00DD
:1009300003133423A9018B108A110A1221280C10E9
:100940005337EF37EB3272104F270000D437F430B3
:100950006C1DA0126410E2306C3673000C1053371B
:10096000EF37EB3272104F270001C634EE34733488
:100970006532A023E13665005337EF37EB32721052
:100980004F2700015036E13C2038F232F339A039CC
:10099000F430723A00000C105337EF37EB3272101C
:1009A0004F270001D437F4306C1DA01A2031613676
:1009B000EC3900000C105337EF37EB3272104F2731
:1009C0000001D730693A203AE8322032F230F7326B
:1009D00072000C105337EF37EB3272104F270001C3
:1009E0005039E5397310733A61397400831608126F
:1009F00088120813881309108910091183128910AD
:100A000083168910831209118316091183120910A4
:100A1000831609108312A7018B1BA7178B130F30A6
:100A2000C100D421A71B8B170130AB002B08033C5E
:100A3000031C512D0330C8004818202D0812212D09
:100A40000816831608128312C818282D8812292D1B
:100A500088168316881283124819302D0813312DF9
:100A60000817831608138312C819382D8813392DD7
:100A7000881783168813000083120914831609103F
:100A8000412D83120910831609108312A7018B1BB5
:100A9000A7178B130530C100D421A71B8B17AB0AF6
:100AA000162D0230C8004818572D0812582D081668
:100AB000831608128312C8185F2D8812602D8816BD
:100AC0008316881283124819672D0813682D08179A
:100AD000831608138312C8196F2D8813702D881779
:100AE0008316881300008312091483160910782DC9
:100AF00083120910831609108312A7018B1BA717F5
:100B00008B130530C100D421A71B8B17AB012B0819
:100B1000033C031C9A2D2B083820AC00A7018B1B2B
:100B2000A7178B13C5012C08C600E921A71B8B173B
:100B3000AB0A872D8A110A12C92DFF30AA0083162D
:100B40001F149F141F159F1107309C0083131F3023
:100B5000830505308312A800A90183161F13831291
:100B60001F179F1783169F1383121F140030F8005E
:100B70001F08C73978049F0083161F109F141F1584
:100B80009F15C03083128B040B168316011383123A
:100B9000F62C831681138530831290008E018F010D
:100BA0008E0183160C148312A7018B1BA7178B13BE
:100BB0000130C100C200F622A71B8B17BC300317FF
:100BC0008D0004308F000313A7018B1BA7178B1315
:100BD0003423A71B8B17A7018B1BA7178B1301307F
:100BE000C1000230C200F622A71B8B17C2300317C8
:100BF0008D0004308F000313A7018B1BA7178B13E5
:100C00003423A71B8B178316861483128618182F7C
:100C10008316061583120619182FA908031D182F0D
:100C2000A7018B1BA7178B130130C100C200F6224E
:100C3000A71B8B17DA3003178D0004308F000313C6
:100C4000A7018B1BA7178B133423A71B8B17A70197
:100C50008B1BA7178B130130C1000230C200F62294
:100C6000A71B8B17E13003178D0004308F0003138F
:100C7000A7018B1BA7178B133423A71B8B17AA1154
:100C80002A0883168700831287112A102A088316E0
:100C90008700831207140430AB00A7018B1BA71732
:100CA0008B13FA30C100D421A71B8B17AB0B4D2E31
:100CB0002A102A088316870083120710AA102A0810
:100CC00083168700831287140430AB00A7018B1BA7
:100CD000A7178B13FA30C100D421A71B8B17AB0BBE
:100CE000662EAA102A0883168700831287102A11FD
:100CF0002A0883168700831207150430AB00A7016A
:100D00008B1BA7178B13FA30C100D421A71B8B179D
:100D1000AB0B7F2E2A112A08831687008312071136
:100D2000AA112A0883168700831287150430AB00A6
:100D3000A7018B1BA7178B13FA30C100D421A71B67
:100D40008B17AB0B982EA7018B1BA7178B130130AA
:100D5000C100C200F622A71B8B17E93003178D00D4
:100D600004308F000313A7018B1BA7178B133423A9
:100D7000A71B8B17A7018B1BA7178B130130C10073
:100D80000230C200F622A71B8B17F03003178D002C
:100D900004308F000313A7018B1BA7178B13342379
:100DA000A71B8B178316861483128618D22E8316E0
:100DB000081183120815A7018B1BA7178B139630F8
:100DC000C100D421A71B8B178316081183120811A9
:100DD0000130A900A7018B1BA7178B130130C1009D
:100DE000C200F622A71B8B17CB3003178D000430EF
:100DF0008F000313A7018B1BA7178B133423A71B8B
:100E00008B17A7018B1BA7178B130230C100C200E1
:100E1000F622A71B8B17D23003178D0004308F00EA
:100E20000313A7018B1BA7178B133423A71B8B1747
:100E3000831686158312861D272F2A122A088316E9
:100E40008700831207128316881183128811831674
:100E5000861583128619362F2A122A0883168700D0
:100E6000831207168316881183128815032E6300D8
:02400E00313F40
:00000001FF
;PIC16F877A
;CRC=92E6  CREATED="21-nov-18 14:21"
