:1000000001308A0058290000FF00030E8301A1007F
:100010000A08A0008A010408A2007708A300780853
:10002000A4007908A5007A08A600831383120B1E8A
:100030001B288B182C28220884002308F70024088A
:10004000F8002508F9002608FA0020088A00210E89
:100050008300FF0E7F0E09008A110A1264283430D3
:10006000840083130008031943280130F800F701C6
:10007000F70B3828F80B37284A30F700F70B3E28E3
:100080004128800B3528080033080739F700330C66
:10009000F800F80CF80C1F30F805780835078400D4
:1000A000831336188317F801F80AF70A5828F80D51
:1000B000F70B5728B40803196028780880046328D0
:1000C000F8097808800508008316881083128810C4
:1000D000831606148312A8100618A814A818A828B6
:1000E0008316081083120814C830B4002F2083161A
:1000F0000810831208102908B3000130B400B601BB
:10010000B50144202908B300B401B6018030B50020
:100110004420831686148312A8118618A815A81DDA
:100120009B28831686148312A8118618A815C83038
:10013000B4002F208F282908B300B401B601B501FF
:1001400044202908B300B401B6018030B500442032
:10015000831606148312A8100618A814A818C62817
:10016000831606148312A8100618A8148316081004
:10017000831208140230B3009630B4002F20B30B62
:10018000BC288316081083120810AE288B108A1121
:100190000A121B288316081083120814A7018B1B50
:1001A000A7178B132B08B300B401B601B501442087
:1001B000A71B8B17A7018B1BA7178B132B08B3004B
:1001C000B401B6018030B5004420A71B8B1708305E
:1001D000AD00A7018B1BA7178B13FA30B4002F209B
:1001E000A71B8B17AD0BE928831608108312081480
:1001F0000430AD00A7018B1BA7178B13FA30B40096
:100200002F20A71B8B17AD0BFA288316081083121B
:100210000810A7018B1BA7178B132908B300013007
:10022000B400B601B5014420A71B8B17A7018B1B97
:10023000A7178B132908B300B401B6018030B500AD
:100240004420A71B8B17831686148312A8118618C7
:10025000A815A81D3B29831686148312A811861899
:10026000A815A7018B1BA7178B13C830B4002F202C
:10027000A71B8B172929A7018B1BA7178B132908ED
:10028000B300B401B601B5014420A71B8B17A70129
:100290008B1BA7178B132908B300B401B60180305C
:1002A000B5004420A71B8B1728128A110A12F629C1
:1002B00083161F149F141F159F1107309C00831372
:1002C0001F308305D03083128B04831601138312F1
:1002D000AA014130A900AC014230AB008316811362
:1002E0008312A7018B1BA7178B132B08B300B40134
:1002F000B601B5014420A71B8B17A7018B1BA717BD
:100300008B132B08B300B401B6018030B500442034
:10031000A71B8B17A7018B1BA7178B132908B300EB
:10032000B401B601B5014420A71B8B17A7018B1B95
:10033000A7178B132908B300B401B6018030B500AC
:100340004420A71B8B1728128316861583122810AA
:10035000861928142818F429831608108312081403
:100360000230AD00A7018B1BA7178B139630B4008A
:100370002F20A71B8B17AD0BB229831608108312F1
:100380000810A7018B1BA7178B132B08B300013094
:10039000B400B601B5014420A71B8B17A7018B1B26
:1003A000A7178B132B08B300B401B6018030B5003A
:1003B0004420A71B8B1783160615831228110619D4
:1003C0002815281DF32983160615831228110619EE
:1003D0002815A7018B1BA7178B13C830B4002F203B
:1003E000A71B8B17E1292816281ACA28A4296300FD
:02400E00393F38
:00000001FF
;PIC16F877A
;CRC=FAE9  CREATED="16-out-18 20:18"
