:1000000000308A00A2280000FF00030E8301A10037
:100010000A08A0008A010408A2007708A300780853
:10002000A4007908A5007A08A600831383120B1E8A
:100030001B288B1832288C308400001C21280C18B7
:100040003528220884002308F7002408F800250832
:10005000F9002608FA0020088A00210E8300FF0E0E
:100060007F0E09008A110A1250288A110A123828B4
:100070000130A7072708143C031D47288316881062
:100080008312881483160811831208114C288E01DC
:100090000B308F00DC308E000C108A110A122128E0
:1000A000A70183160811831208158316881383127B
:1000B0008813873090008E010B308F00DC308E006B
:1000C00083160C1483122708133C031863288B1023
:1000D0008A110A1221282D080739F7002D0CF80083
:1000E000F80CF80C1F30F80578082F0784008313EC
:1000F00030188317F801F80AF70A7F28F80DF70B74
:100100007E28AE0803198728780880048A28F80911
:100110007808800508002D30840083130008031937
:100120009F280130F800F701F70B9428F80B93286B
:100130004A30F700F70B9A289D28800B91288A11E6
:100140000A12FE2883161F149F141F159F110730D3
:100150009C0083131F308305C03083128B040B1661
:100160008316011340308312A9004130A8004730A4
:10017000AA008316861483122C1086182C14AB0147
:1001800083168113861483122C1086182C142C1CB1
:10019000DE282908AD000130AE00B001AF016B20B0
:1001A0002908AD00AE01B0018030AF006B2083168E
:1001B000861483128618D7280130AB002B0B012937
:1001C0002908AD00AE01B001AF016B202908AD00D8
:1001D000AE01B0018030AF006B202A08AD000130C5
:1001E000AE00B001AF016B202A08AD00AE01B00136
:1001F0008030AF006B206430AD008B28AB08031D4E
:0802000000308316C2286300E0
:02400E00713F00
:00000001FF
;PIC16F877A
;CRC=D28E  CREATED="04-nov-18 19:45"
